{
  "_format": "hh-sol-artifact-1",
  "contractName": "ProductDetail",
  "sourceName": "contracts/ProductDetail.sol",
  "abi": [
    {
      "anonymous": false,
      "inputs": [
        {
          "indexed": false,
          "internalType": "address",
          "name": "from",
          "type": "address"
        },
        {
          "indexed": false,
          "internalType": "string[]",
          "name": "items",
          "type": "string[]"
        },
        {
          "indexed": false,
          "internalType": "string",
          "name": "productId",
          "type": "string"
        },
        {
          "indexed": false,
          "internalType": "uint256",
          "name": "timestamp",
          "type": "uint256"
        }
      ],
      "name": "Transfer",
      "type": "event"
    },
    {
      "inputs": [
        {
          "internalType": "string[]",
          "name": "itemList",
          "type": "string[]"
        },
        {
          "internalType": "string",
          "name": "productId",
          "type": "string"
        }
      ],
      "name": "AddToBlockchain",
      "outputs": [],
      "stateMutability": "nonpayable",
      "type": "function"
    },
    {
      "inputs": [],
      "name": "ProductDetailCount",
      "outputs": [
        {
          "internalType": "uint256",
          "name": "",
          "type": "uint256"
        }
      ],
      "stateMutability": "view",
      "type": "function"
    },
    {
      "inputs": [],
      "name": "getAllProductDetails",
      "outputs": [
        {
          "components": [
            {
              "internalType": "address",
              "name": "sender",
              "type": "address"
            },
            {
              "internalType": "string[]",
              "name": "items",
              "type": "string[]"
            },
            {
              "internalType": "string",
              "name": "productId",
              "type": "string"
            },
            {
              "internalType": "uint256",
              "name": "timestamp",
              "type": "uint256"
            }
          ],
          "internalType": "struct ProductDetail.ProductDetailStruct[]",
          "name": "",
          "type": "tuple[]"
        }
      ],
      "stateMutability": "view",
      "type": "function"
    },
    {
      "inputs": [
        {
          "internalType": "string",
          "name": "productId",
          "type": "string"
        }
      ],
      "name": "getProductDetail",
      "outputs": [
        {
          "components": [
            {
              "internalType": "address",
              "name": "sender",
              "type": "address"
            },
            {
              "internalType": "string[]",
              "name": "items",
              "type": "string[]"
            },
            {
              "internalType": "string",
              "name": "productId",
              "type": "string"
            },
            {
              "internalType": "uint256",
              "name": "timestamp",
              "type": "uint256"
            }
          ],
          "internalType": "struct ProductDetail.ProductDetailStruct",
          "name": "",
          "type": "tuple"
        }
      ],
      "stateMutability": "view",
      "type": "function"
    },
    {
      "inputs": [],
      "name": "getProductDetailCount",
      "outputs": [
        {
          "internalType": "uint256",
          "name": "",
          "type": "uint256"
        }
      ],
      "stateMutability": "view",
      "type": "function"
    }
  ],
  "bytecode": "0x608060405234801561001057600080fd5b5061142e806100206000396000f3fe608060405234801561001057600080fd5b50600436106100575760003560e01c80635aed9c221461005c5780639ce4ed181461007a578063aa2332e014610096578063bc7fca94146100b4578063ee786260146100d2575b600080fd5b610064610102565b6040516100719190610b79565b60405180910390f35b610094600480360381019061008f9190610d44565b61032c565b005b61009e61043c565b6040516100ab9190610dcf565b60405180910390f35b6100bc610445565b6040516100c99190610dcf565b60405180910390f35b6100ec60048036038101906100e79190610dea565b61044b565b6040516100f99190610e9d565b60405180910390f35b60606001805480602002602001604051908101604052809291908181526020016000905b8282101561032357838290600052602060002090600402016040518060800160405290816000820160009054906101000a900473ffffffffffffffffffffffffffffffffffffffff1673ffffffffffffffffffffffffffffffffffffffff1673ffffffffffffffffffffffffffffffffffffffff16815260200160018201805480602002602001604051908101604052809291908181526020016000905b828210156102705783829060005260206000200180546101e390610eee565b80601f016020809104026020016040519081016040528092919081815260200182805461020f90610eee565b801561025c5780601f106102315761010080835404028352916020019161025c565b820191906000526020600020905b81548152906001019060200180831161023f57829003601f168201915b5050505050815260200190600101906101c4565b50505050815260200160028201805461028890610eee565b80601f01602080910402602001604051908101604052809291908181526020018280546102b490610eee565b80156103015780601f106102d657610100808354040283529160200191610301565b820191906000526020600020905b8154815290600101906020018083116102e457829003601f168201915b5050505050815260200160038201548152505081526020019060010190610126565b50505050905090565b60008081548092919061033e90610f4e565b9190505550600160405180608001604052803373ffffffffffffffffffffffffffffffffffffffff1681526020018585906103799190611049565b815260200183815260200142815250908060018154018082558091505060019003906000526020600020906004020160009091909190915060008201518160000160006101000a81548173ffffffffffffffffffffffffffffffffffffffff021916908373ffffffffffffffffffffffffffffffffffffffff1602179055506020820151816001019080519060200190610414929190610789565b50604082015181600201908161042a919061120a565b50606082015181600301555050505050565b60008054905090565b60005481565b6104536107e2565b60005b6000548110156106ea57826040516020016104719190611318565b604051602081830303815290604052805190602001206001828154811061049b5761049a61132f565b5b90600052602060002090600402016002016040516020016104bc91906113e1565b60405160208183030381529060405280519060200120036106d757600181815481106104eb576104ea61132f565b5b90600052602060002090600402016040518060800160405290816000820160009054906101000a900473ffffffffffffffffffffffffffffffffffffffff1673ffffffffffffffffffffffffffffffffffffffff1673ffffffffffffffffffffffffffffffffffffffff16815260200160018201805480602002602001604051908101604052809291908181526020016000905b8282101561062b57838290600052602060002001805461059e90610eee565b80601f01602080910402602001604051908101604052809291908181526020018280546105ca90610eee565b80156106175780601f106105ec57610100808354040283529160200191610617565b820191906000526020600020905b8154815290600101906020018083116105fa57829003601f168201915b50505050508152602001906001019061057f565b50505050815260200160028201805461064390610eee565b80601f016020809104026020016040519081016040528092919081815260200182805461066f90610eee565b80156106bc5780601f10610691576101008083540402835291602001916106bc565b820191906000526020600020905b81548152906001019060200180831161069f57829003601f168201915b50505050508152602001600382015481525050915050610784565b80806106e290610f4e565b915050610456565b506040518060800160405280600073ffffffffffffffffffffffffffffffffffffffff168152602001600067ffffffffffffffff81111561072e5761072d610c19565b5b60405190808252806020026020018201604052801561076157816020015b606081526020019060019003908161074c5790505b508152602001604051806020016040528060008152508152602001600081525090505b919050565b8280548282559060005260206000209081019282156107d1579160200282015b828111156107d05782518290816107c0919061120a565b50916020019190600101906107a9565b5b5090506107de9190610820565b5090565b6040518060800160405280600073ffffffffffffffffffffffffffffffffffffffff1681526020016060815260200160608152602001600081525090565b5b8082111561084057600081816108379190610844565b50600101610821565b5090565b50805461085090610eee565b6000825580601f106108625750610881565b601f0160209004906000526020600020908101906108809190610884565b5b50565b5b8082111561089d576000816000905550600101610885565b5090565b600081519050919050565b600082825260208201905092915050565b6000819050602082019050919050565b600073ffffffffffffffffffffffffffffffffffffffff82169050919050565b60006108f8826108cd565b9050919050565b610908816108ed565b82525050565b600081519050919050565b600082825260208201905092915050565b6000819050602082019050919050565b600081519050919050565b600082825260208201905092915050565b60005b83811015610974578082015181840152602081019050610959565b60008484015250505050565b6000601f19601f8301169050919050565b600061099c8261093a565b6109a68185610945565b93506109b6818560208601610956565b6109bf81610980565b840191505092915050565b60006109d68383610991565b905092915050565b6000602082019050919050565b60006109f68261090e565b610a008185610919565b935083602082028501610a128561092a565b8060005b85811015610a4e5784840389528151610a2f85826109ca565b9450610a3a836109de565b925060208a01995050600181019050610a16565b50829750879550505050505092915050565b6000819050919050565b610a7381610a60565b82525050565b6000608083016000830151610a9160008601826108ff565b5060208301518482036020860152610aa982826109eb565b91505060408301518482036040860152610ac38282610991565b9150506060830151610ad86060860182610a6a565b508091505092915050565b6000610aef8383610a79565b905092915050565b6000602082019050919050565b6000610b0f826108a1565b610b1981856108ac565b935083602082028501610b2b856108bd565b8060005b85811015610b675784840389528151610b488582610ae3565b9450610b5383610af7565b925060208a01995050600181019050610b2f565b50829750879550505050505092915050565b60006020820190508181036000830152610b938184610b04565b905092915050565b6000604051905090565b600080fd5b600080fd5b600080fd5b600080fd5b600080fd5b60008083601f840112610bd457610bd3610baf565b5b8235905067ffffffffffffffff811115610bf157610bf0610bb4565b5b602083019150836020820283011115610c0d57610c0c610bb9565b5b9250929050565b600080fd5b7f4e487b7100000000000000000000000000000000000000000000000000000000600052604160045260246000fd5b610c5182610980565b810181811067ffffffffffffffff82111715610c7057610c6f610c19565b5b80604052505050565b6000610c83610b9b565b9050610c8f8282610c48565b919050565b600067ffffffffffffffff821115610caf57610cae610c19565b5b610cb882610980565b9050602081019050919050565b82818337600083830152505050565b6000610ce7610ce284610c94565b610c79565b905082815260208101848484011115610d0357610d02610c14565b5b610d0e848285610cc5565b509392505050565b600082601f830112610d2b57610d2a610baf565b5b8135610d3b848260208601610cd4565b91505092915050565b600080600060408486031215610d5d57610d5c610ba5565b5b600084013567ffffffffffffffff811115610d7b57610d7a610baa565b5b610d8786828701610bbe565b9350935050602084013567ffffffffffffffff811115610daa57610da9610baa565b5b610db686828701610d16565b9150509250925092565b610dc981610a60565b82525050565b6000602082019050610de46000830184610dc0565b92915050565b600060208284031215610e0057610dff610ba5565b5b600082013567ffffffffffffffff811115610e1e57610e1d610baa565b5b610e2a84828501610d16565b91505092915050565b6000608083016000830151610e4b60008601826108ff565b5060208301518482036020860152610e6382826109eb565b91505060408301518482036040860152610e7d8282610991565b9150506060830151610e926060860182610a6a565b508091505092915050565b60006020820190508181036000830152610eb78184610e33565b905092915050565b7f4e487b7100000000000000000000000000000000000000000000000000000000600052602260045260246000fd5b60006002820490506001821680610f0657607f821691505b602082108103610f1957610f18610ebf565b5b50919050565b7f4e487b7100000000000000000000000000000000000000000000000000000000600052601160045260246000fd5b6000610f5982610a60565b91507fffffffffffffffffffffffffffffffffffffffffffffffffffffffffffffffff8203610f8b57610f8a610f1f565b5b600182019050919050565b600067ffffffffffffffff821115610fb157610fb0610c19565b5b602082029050602081019050919050565b6000610fd5610fd084610f96565b610c79565b90508083825260208201905060208402830185811115610ff857610ff7610bb9565b5b835b8181101561103f57803567ffffffffffffffff81111561101d5761101c610baf565b5b80860161102a8982610d16565b85526020850194505050602081019050610ffa565b5050509392505050565b6000611056368484610fc2565b905092915050565b60008190508160005260206000209050919050565b60006020601f8301049050919050565b600082821b905092915050565b6000600883026110c07fffffffffffffffffffffffffffffffffffffffffffffffffffffffffffffffff82611083565b6110ca8683611083565b95508019841693508086168417925050509392505050565b6000819050919050565b60006111076111026110fd84610a60565b6110e2565b610a60565b9050919050565b6000819050919050565b611121836110ec565b61113561112d8261110e565b848454611090565b825550505050565b600090565b61114a61113d565b611155818484611118565b505050565b5b818110156111795761116e600082611142565b60018101905061115b565b5050565b601f8211156111be5761118f8161105e565b61119884611073565b810160208510156111a7578190505b6111bb6111b385611073565b83018261115a565b50505b505050565b600082821c905092915050565b60006111e1600019846008026111c3565b1980831691505092915050565b60006111fa83836111d0565b9150826002028217905092915050565b6112138261093a565b67ffffffffffffffff81111561122c5761122b610c19565b5b6112368254610eee565b61124182828561117d565b600060209050601f8311600181146112745760008415611262578287015190505b61126c85826111ee565b8655506112d4565b601f1984166112828661105e565b60005b828110156112aa57848901518255600182019150602085019450602081019050611285565b868310156112c757848901516112c3601f8916826111d0565b8355505b6001600288020188555050505b505050505050565b600081905092915050565b60006112f28261093a565b6112fc81856112dc565b935061130c818560208601610956565b80840191505092915050565b600061132482846112e7565b915081905092915050565b7f4e487b7100000000000000000000000000000000000000000000000000000000600052603260045260246000fd5b6000815461136b81610eee565b61137581866112dc565b9450600182166000811461139057600181146113a5576113d8565b60ff19831686528115158202860193506113d8565b6113ae8561105e565b60005b838110156113d0578154818901526001820191506020810190506113b1565b838801955050505b50505092915050565b60006113ed828461135e565b91508190509291505056fea2646970667358221220d585be6219b7b478ea1cd24dcd869253e3bf64b9262a451ed9832ab86c17b41464736f6c63430008110033",
  "linkReferences": {},
  "deployedLinkReferences": {}
}