{
  "_format": "hh-sol-artifact-1",
  "contractName": "ProductDetail",
  "sourceName": "contracts/ProductDetail.sol",
  "abi": [
    {
      "anonymous": false,
      "inputs": [
        {
          "indexed": false,
          "internalType": "address",
          "name": "from",
          "type": "address"
        },
        {
          "indexed": false,
          "internalType": "string[]",
          "name": "items",
          "type": "string[]"
        },
        {
          "indexed": false,
          "internalType": "string",
          "name": "productId",
          "type": "string"
        },
        {
          "indexed": false,
          "internalType": "uint256",
          "name": "timestamp",
          "type": "uint256"
        }
      ],
      "name": "Transfer",
      "type": "event"
    },
    {
      "inputs": [
        {
          "internalType": "string[]",
          "name": "itemList",
          "type": "string[]"
        },
        {
          "internalType": "string",
          "name": "productId",
          "type": "string"
        }
      ],
      "name": "AddToBlockchain",
      "outputs": [],
      "stateMutability": "nonpayable",
      "type": "function"
    },
    {
      "inputs": [],
      "name": "ProductDetailCount",
      "outputs": [
        {
          "internalType": "uint256",
          "name": "",
          "type": "uint256"
        }
      ],
      "stateMutability": "view",
      "type": "function"
    },
    {
      "inputs": [],
      "name": "deleteAll",
      "outputs": [],
      "stateMutability": "nonpayable",
      "type": "function"
    },
    {
      "inputs": [],
      "name": "getAllProductDetails",
      "outputs": [
        {
          "components": [
            {
              "internalType": "address",
              "name": "sender",
              "type": "address"
            },
            {
              "internalType": "string[]",
              "name": "items",
              "type": "string[]"
            },
            {
              "internalType": "string",
              "name": "productId",
              "type": "string"
            },
            {
              "internalType": "uint256",
              "name": "timestamp",
              "type": "uint256"
            }
          ],
          "internalType": "struct ProductDetail.ProductDetailStruct[]",
          "name": "",
          "type": "tuple[]"
        }
      ],
      "stateMutability": "view",
      "type": "function"
    },
    {
      "inputs": [
        {
          "internalType": "string",
          "name": "productId",
          "type": "string"
        }
      ],
      "name": "getProductDetail",
      "outputs": [
        {
          "components": [
            {
              "internalType": "address",
              "name": "sender",
              "type": "address"
            },
            {
              "internalType": "string[]",
              "name": "items",
              "type": "string[]"
            },
            {
              "internalType": "string",
              "name": "productId",
              "type": "string"
            },
            {
              "internalType": "uint256",
              "name": "timestamp",
              "type": "uint256"
            }
          ],
          "internalType": "struct ProductDetail.ProductDetailStruct",
          "name": "",
          "type": "tuple"
        }
      ],
      "stateMutability": "view",
      "type": "function"
    },
    {
      "inputs": [],
      "name": "getProductDetailCount",
      "outputs": [
        {
          "internalType": "uint256",
          "name": "",
          "type": "uint256"
        }
      ],
      "stateMutability": "view",
      "type": "function"
    },
    {
      "inputs": [
        {
          "internalType": "string[]",
          "name": "itemList",
          "type": "string[]"
        },
        {
          "internalType": "string",
          "name": "productId",
          "type": "string"
        }
      ],
      "name": "setProductDetail",
      "outputs": [],
      "stateMutability": "nonpayable",
      "type": "function"
    }
  ],
  "bytecode": "0x608060405234801561001057600080fd5b506118bb806100206000396000f3fe608060405234801561001057600080fd5b506004361061007d5760003560e01c80639ce4ed181161005b5780639ce4ed18146100c6578063aa2332e0146100e2578063bc7fca9414610100578063ee7862601461011e5761007d565b80634c164407146100825780635aed9c221461008c57806391988992146100aa575b600080fd5b61008a61014e565b005b610094610165565b6040516100a19190610ee3565b60405180910390f35b6100c460048036038101906100bf9190611134565b61038f565b005b6100e060048036038101906100db9190611207565b610515565b005b6100ea6106fb565b6040516100f79190611292565b60405180910390f35b610108610704565b6040516101159190611292565b60405180910390f35b610138600480360381019061013391906112ad565b61070a565b6040516101459190611360565b60405180910390f35b6001600061015c9190610a48565b60008081905550565b60606001805480602002602001604051908101604052809291908181526020016000905b8282101561038657838290600052602060002090600402016040518060800160405290816000820160009054906101000a900473ffffffffffffffffffffffffffffffffffffffff1673ffffffffffffffffffffffffffffffffffffffff1673ffffffffffffffffffffffffffffffffffffffff16815260200160018201805480602002602001604051908101604052809291908181526020016000905b828210156102d3578382906000526020600020018054610246906113b1565b80601f0160208091040260200160405190810160405280929190818152602001828054610272906113b1565b80156102bf5780601f10610294576101008083540402835291602001916102bf565b820191906000526020600020905b8154815290600101906020018083116102a257829003601f168201915b505050505081526020019060010190610227565b5050505081526020016002820180546102eb906113b1565b80601f0160208091040260200160405190810160405280929190818152602001828054610317906113b1565b80156103645780601f1061033957610100808354040283529160200191610364565b820191906000526020600020905b81548152906001019060200180831161034757829003601f168201915b5050505050815260200160038201548152505081526020019060010190610189565b50505050905090565b60005b60018054905081101561050f57816040516020016103b0919061141e565b60405160208183030381529060405280519060200120600182815481106103da576103d9611435565b5b90600052602060002090600402016002016040516020016103fb91906114fc565b60405160208183030381529060405280519060200120036104fc5760405180608001604052803373ffffffffffffffffffffffffffffffffffffffff168152602001848152602001838152602001428152506001828154811061046157610460611435565b5b906000526020600020906004020160008201518160000160006101000a81548173ffffffffffffffffffffffffffffffffffffffff021916908373ffffffffffffffffffffffffffffffffffffffff16021790555060208201518160010190805190602001906104d2929190610a6c565b5060408201518160020190816104e891906116aa565b506060820151816003015590505050610511565b8080610507906117ab565b915050610392565b505b5050565b60005b6001805490508110156105ea5781604051602001610536919061141e565b60405160208183030381529060405280519060200120600182815481106105605761055f611435565b5b906000526020600020906004020160020160405160200161058191906114fc565b60405160208183030381529060405280519060200120036105d7576040517f08c379a00000000000000000000000000000000000000000000000000000000081526004016105ce90611850565b60405180910390fd5b80806105e2906117ab565b915050610518565b506000808154809291906105fd906117ab565b9190505550600160405180608001604052803373ffffffffffffffffffffffffffffffffffffffff1681526020018585906106389190611870565b815260200183815260200142815250908060018154018082558091505060019003906000526020600020906004020160009091909190915060008201518160000160006101000a81548173ffffffffffffffffffffffffffffffffffffffff021916908373ffffffffffffffffffffffffffffffffffffffff16021790555060208201518160010190805190602001906106d3929190610a6c565b5060408201518160020190816106e991906116aa565b50606082015181600301555050505050565b60008054905090565b60005481565b610712610ac5565b60005b6000548110156109a95782604051602001610730919061141e565b604051602081830303815290604052805190602001206001828154811061075a57610759611435565b5b906000526020600020906004020160020160405160200161077b91906114fc565b604051602081830303815290604052805190602001200361099657600181815481106107aa576107a9611435565b5b90600052602060002090600402016040518060800160405290816000820160009054906101000a900473ffffffffffffffffffffffffffffffffffffffff1673ffffffffffffffffffffffffffffffffffffffff1673ffffffffffffffffffffffffffffffffffffffff16815260200160018201805480602002602001604051908101604052809291908181526020016000905b828210156108ea57838290600052602060002001805461085d906113b1565b80601f0160208091040260200160405190810160405280929190818152602001828054610889906113b1565b80156108d65780601f106108ab576101008083540402835291602001916108d6565b820191906000526020600020905b8154815290600101906020018083116108b957829003601f168201915b50505050508152602001906001019061083e565b505050508152602001600282018054610902906113b1565b80601f016020809104026020016040519081016040528092919081815260200182805461092e906113b1565b801561097b5780601f106109505761010080835404028352916020019161097b565b820191906000526020600020905b81548152906001019060200180831161095e57829003601f168201915b50505050508152602001600382015481525050915050610a43565b80806109a1906117ab565b915050610715565b506040518060800160405280600073ffffffffffffffffffffffffffffffffffffffff168152602001600067ffffffffffffffff8111156109ed576109ec610f1e565b5b604051908082528060200260200182016040528015610a2057816020015b6060815260200190600190039081610a0b5790505b508152602001604051806020016040528060008152508152602001600081525090505b919050565b5080546000825560040290600052602060002090810190610a699190610b03565b50565b828054828255906000526020600020908101928215610ab4579160200282015b82811115610ab3578251829081610aa391906116aa565b5091602001919060010190610a8c565b5b509050610ac19190610b69565b5090565b6040518060800160405280600073ffffffffffffffffffffffffffffffffffffffff1681526020016060815260200160608152602001600081525090565b5b80821115610b6557600080820160006101000a81549073ffffffffffffffffffffffffffffffffffffffff0219169055600182016000610b449190610b8d565b600282016000610b549190610bae565b600382016000905550600401610b04565b5090565b5b80821115610b895760008181610b809190610bae565b50600101610b6a565b5090565b5080546000825590600052602060002090810190610bab9190610b69565b50565b508054610bba906113b1565b6000825580601f10610bcc5750610beb565b601f016020900490600052602060002090810190610bea9190610bee565b5b50565b5b80821115610c07576000816000905550600101610bef565b5090565b600081519050919050565b600082825260208201905092915050565b6000819050602082019050919050565b600073ffffffffffffffffffffffffffffffffffffffff82169050919050565b6000610c6282610c37565b9050919050565b610c7281610c57565b82525050565b600081519050919050565b600082825260208201905092915050565b6000819050602082019050919050565b600081519050919050565b600082825260208201905092915050565b60005b83811015610cde578082015181840152602081019050610cc3565b60008484015250505050565b6000601f19601f8301169050919050565b6000610d0682610ca4565b610d108185610caf565b9350610d20818560208601610cc0565b610d2981610cea565b840191505092915050565b6000610d408383610cfb565b905092915050565b6000602082019050919050565b6000610d6082610c78565b610d6a8185610c83565b935083602082028501610d7c85610c94565b8060005b85811015610db85784840389528151610d998582610d34565b9450610da483610d48565b925060208a01995050600181019050610d80565b50829750879550505050505092915050565b6000819050919050565b610ddd81610dca565b82525050565b6000608083016000830151610dfb6000860182610c69565b5060208301518482036020860152610e138282610d55565b91505060408301518482036040860152610e2d8282610cfb565b9150506060830151610e426060860182610dd4565b508091505092915050565b6000610e598383610de3565b905092915050565b6000602082019050919050565b6000610e7982610c0b565b610e838185610c16565b935083602082028501610e9585610c27565b8060005b85811015610ed15784840389528151610eb28582610e4d565b9450610ebd83610e61565b925060208a01995050600181019050610e99565b50829750879550505050505092915050565b60006020820190508181036000830152610efd8184610e6e565b905092915050565b6000604051905090565b600080fd5b600080fd5b600080fd5b7f4e487b7100000000000000000000000000000000000000000000000000000000600052604160045260246000fd5b610f5682610cea565b810181811067ffffffffffffffff82111715610f7557610f74610f1e565b5b80604052505050565b6000610f88610f05565b9050610f948282610f4d565b919050565b600067ffffffffffffffff821115610fb457610fb3610f1e565b5b602082029050602081019050919050565b600080fd5b600080fd5b600067ffffffffffffffff821115610fea57610fe9610f1e565b5b610ff382610cea565b9050602081019050919050565b82818337600083830152505050565b600061102261101d84610fcf565b610f7e565b90508281526020810184848401111561103e5761103d610fca565b5b611049848285611000565b509392505050565b600082601f83011261106657611065610f19565b5b813561107684826020860161100f565b91505092915050565b600061109261108d84610f99565b610f7e565b905080838252602082019050602084028301858111156110b5576110b4610fc5565b5b835b818110156110fc57803567ffffffffffffffff8111156110da576110d9610f19565b5b8086016110e78982611051565b855260208501945050506020810190506110b7565b5050509392505050565b600082601f83011261111b5761111a610f19565b5b813561112b84826020860161107f565b91505092915050565b6000806040838503121561114b5761114a610f0f565b5b600083013567ffffffffffffffff81111561116957611168610f14565b5b61117585828601611106565b925050602083013567ffffffffffffffff81111561119657611195610f14565b5b6111a285828601611051565b9150509250929050565b600080fd5b60008083601f8401126111c7576111c6610f19565b5b8235905067ffffffffffffffff8111156111e4576111e36111ac565b5b602083019150836020820283011115611200576111ff610fc5565b5b9250929050565b6000806000604084860312156112205761121f610f0f565b5b600084013567ffffffffffffffff81111561123e5761123d610f14565b5b61124a868287016111b1565b9350935050602084013567ffffffffffffffff81111561126d5761126c610f14565b5b61127986828701611051565b9150509250925092565b61128c81610dca565b82525050565b60006020820190506112a76000830184611283565b92915050565b6000602082840312156112c3576112c2610f0f565b5b600082013567ffffffffffffffff8111156112e1576112e0610f14565b5b6112ed84828501611051565b91505092915050565b600060808301600083015161130e6000860182610c69565b50602083015184820360208601526113268282610d55565b915050604083015184820360408601526113408282610cfb565b91505060608301516113556060860182610dd4565b508091505092915050565b6000602082019050818103600083015261137a81846112f6565b905092915050565b7f4e487b7100000000000000000000000000000000000000000000000000000000600052602260045260246000fd5b600060028204905060018216806113c957607f821691505b6020821081036113dc576113db611382565b5b50919050565b600081905092915050565b60006113f882610ca4565b61140281856113e2565b9350611412818560208601610cc0565b80840191505092915050565b600061142a82846113ed565b915081905092915050565b7f4e487b7100000000000000000000000000000000000000000000000000000000600052603260045260246000fd5b60008190508160005260206000209050919050565b60008154611486816113b1565b61149081866113e2565b945060018216600081146114ab57600181146114c0576114f3565b60ff19831686528115158202860193506114f3565b6114c985611464565b60005b838110156114eb578154818901526001820191506020810190506114cc565b838801955050505b50505092915050565b60006115088284611479565b915081905092915050565b60006020601f8301049050919050565b600082821b905092915050565b6000600883026115607fffffffffffffffffffffffffffffffffffffffffffffffffffffffffffffffff82611523565b61156a8683611523565b95508019841693508086168417925050509392505050565b6000819050919050565b60006115a76115a261159d84610dca565b611582565b610dca565b9050919050565b6000819050919050565b6115c18361158c565b6115d56115cd826115ae565b848454611530565b825550505050565b600090565b6115ea6115dd565b6115f58184846115b8565b505050565b5b818110156116195761160e6000826115e2565b6001810190506115fb565b5050565b601f82111561165e5761162f81611464565b61163884611513565b81016020851015611647578190505b61165b61165385611513565b8301826115fa565b50505b505050565b600082821c905092915050565b600061168160001984600802611663565b1980831691505092915050565b600061169a8383611670565b9150826002028217905092915050565b6116b382610ca4565b67ffffffffffffffff8111156116cc576116cb610f1e565b5b6116d682546113b1565b6116e182828561161d565b600060209050601f8311600181146117145760008415611702578287015190505b61170c858261168e565b865550611774565b601f19841661172286611464565b60005b8281101561174a57848901518255600182019150602085019450602081019050611725565b868310156117675784890151611763601f891682611670565b8355505b6001600288020188555050505b505050505050565b7f4e487b7100000000000000000000000000000000000000000000000000000000600052601160045260246000fd5b60006117b682610dca565b91507fffffffffffffffffffffffffffffffffffffffffffffffffffffffffffffffff82036117e8576117e761177c565b5b600182019050919050565b600082825260208201905092915050565b7f50726f6475637420616c72656164792065786973747300000000000000000000600082015250565b600061183a6016836117f3565b915061184582611804565b602082019050919050565b600060208201905081810360008301526118698161182d565b9050919050565b600061187d36848461107f565b90509291505056fea264697066735822122003d962da08016d92669aa9fa8cc04ae42f60f76766897f313982c71fc11e627d64736f6c63430008110033",
  "linkReferences": {},
  "deployedLinkReferences": {}
}